S01700004763634170706C69636174696F6E312E737265635B
S11300000C942A000C943F000C943F000C943F0085
S11300100C943F000C943F000C943F000C943F0060
S11300200C943F000C943F000C943F000C943F0050
S11300300C943F000C943F000C943F000C943F0040
S11300400C943F000C943F000C943F000C943F0030
S11300500C943F0011241FBECFE5D8E0DEBFCDBF16
S113006010E0A0E6B0E0EAE3FCE002C005900D92E7
S1130070AE39B107D9F70E94FD020C941B060C940B
S1130080000041E064E083E00E94730341E065E026
S113009083E00E94730341E063E082E00E94730303
S11300A041E064E082E00E94730341E065E082E0A5
S11300B00E94730341E066E082E00E9473030895A6
S11300C0662319F0613019F10895811110C041E0DF
S11300D064E083E00E94E00341E063E082E00E9488
S11300E0E00340E064E082E00E94E003089541E020
S11300F064E083E00E94E00340E063E082E00E9469
S1130100E00341E064E082E00E94E003089581118D
S113011010C041E065E083E00E94E00340E065E058
S113012082E00E94E00341E066E082E00E94E00396
S1130130089541E065E083E00E94E00341E065E06A
S113014082E00E94E00340E066E082E00E94E00377
S1130150089540E064E083E00E94E00340E065E04D
S113016083E00E94E003089560E080E00E94600064
S113017080E49FE105C0E9E1F0E03197F1F70197F0
S11301800097C9F70E94A900089540E064E083E065
S11301900E94E00361E080E00E94600080E49FE14F
S11301A005C0E9E1F0E03197F1F701970097C9F74D
S11301B00E94A900089561E080E00E94600060E070
S11301C080E00E946000089541E063E081E00E94C5
S11301D0E00381E08A95F1F740E063E081E00E946A
S11301E0E00384EF91E00197F1F70895CF93DF9353
S11301F0C82FD82FD295D07F41E061E081E00E94E2
S1130200E0034C2F60EF80E00E944D040E94E40064
S11302104D2F60EF80E00E944D040E94E400DF91C6
S1130220CF910895CF93DF93C82FD82FD295D07F45
S113023040E061E081E00E94E0034C2F60EF80E049
S11302400E944D040E94E4004D2F60EF80E00E9464
S11302504D040E94E400DF91CF9108950E94F600BE
S11302600895CF93DF93EC0103C00E942E012196E1
S113027088818111FACFDF91CF910895882319F0F5
S1130280813031F0089583E0860F0E9412010895B1
S113029080EC860F0E941201089541E064E080E042
S11302A00E94730341E065E080E00E94730341E033
S11302B066E080E00E94730341E067E080E00E9412
S11302C0730341E061E081E00E94730341E062E076
S11302D081E00E94730341E063E081E00E947303C4
S11302E040E062E081E00E94E00386EA9EE001973C
S11302F0F1F783E00E94120182EE94E00197F1F796
S113030083E00E94120181E28A95F1F783E00E9462
S1130310120182E00E94120188E20E94120160E050
S113032080E00E943E010895EF92FF920F931F9385
S1130330CF93DF93EC017C01F694E794F694E79471
S1130340F694E7949701A5ECB0E20E940C068C01A8
S1130350129502950F7001271F70012780E3800F0B
S11303600E942E0128EE33E0029FC001039F900DEE
S1130370129F900D1124C81BD90B7E01F694E794AB
S1130380F694E7949701ABE7B4E10E940C068C0164
S11303901695079580E3800F0E942E0124E6209F86
S11303A0C001219F900D1124C81BD90B9E01ADECF7
S11303B0BCEC0E940C068C011695079516950795C2
S11303C01695079580E3800F0E942E01ADECBCECDE
S11303D0C801880F991F000F111F000F111F000F74
S11303E0111F080F191FC01BD10B9E010E940C0680
S11303F09695879596958795969587959C01220F56
S1130400331F880F991F880F991F880F991F820F18
S1130410931F9E01281B390BC901805D0E942E0188
S1130420DF91CF911F910F91FF90EF9008958F92DC
S11304309F92AF92BF92CF92DF92EF92FF924B01C5
S11304405C010E94E2046B017C0180E090E00E9468
S113045011059B01AC01C501B4010E94750420E0A3
S113046030E44CE156E40E949F050E94E2044B01F3
S11304705C01C6010E9494018EE20E942E01C40117
S11304800E949401FF90EF90DF90CF90BF90AF90C7
S11304909F908F90089541E067E083E00E9473038A
S11304A00895CF93DF93C0E0D0E013C040E067E04D
S11304B083E00E94E00381E192E10197F1F741E0DA
S11304C067E083E00E94E00387E791E00197F1F79A
S11304D02196C436D10554F3DF91CF910895CF937B
S11304E0DF93C0E0D0E013C040E067E083E00E9407
S11304F0E0038AEF90E00197F1F741E067E083E0E1
S11305000E94E00384EF91E00197F1F72196C4364D
S1130510D10554F3DF91CF910895CF93DF93C0E0D9
S1130520D0E013C040E067E083E00E94E0038EE87F
S113053092E10197F1F741E067E083E00E94E00374
S11305408AEF90E00197F1F72196C83E83E0D8073F
S11305504CF3DF91CF91089584B3816084BB0895F7
S113056080E090E0DC0105C099990AC00196A11DC4
S1130570B11D803C27E2920729E0A207B105A0F350
S1130580803C9742A940B10579F11FBC82E08EBD41
S11305901DBC1CBC80E090E0DC010AC0999B0FC02C
S11305A02CB53DB521363A4E50F40196A11DB11D2E
S11305B0803C27E2920729E0A207B10578F3803C4A
S11305C09742A940B10599F08CB59DB5A0E0B0E083
S11305D01EBC81362AEE9207A105B10558F4B695E2
S11305E0A7959795879508958FEF9FEF08958EEFC0
S11305F09FEF08958EEF9FEF08950E94AC020E9432
S11306004D010E9441000E944B020E94510260E091
S113061080E00E943E0180E690E00E9431010E9449
S1130620B002BC0180E090E00E9411050E94170214
S11306300E94B002899708F04FC00E94A9000E944E
S11306406F020E94B002899770F50E948D020E9489
S1130650B002899718F40E94A90040C088E690E08F
S11306600E9431010E94B4008FEF9FEF05C0E9E1C1
S1130670F0E03197F1F701970097C9F785E790E02B
S11306800E9431010E946F0288E893E105C0E9E10C
S1130690F0E03197F1F701970097C9F70E945102F2
S11306A00E94DB001BC082E890E00E9431010E949E
S11306B0C5000E9451028FEF9FEF05C0E9E1F0E011
S11306C03197F1F701970097C9F780E990E00E940C
S11306D031010E94DB0002C00E94DB0080E690E052
S11306E00E94310194CF813001F130F08230B1F1B8
S11306F0833009F44CC0089541110CC02AB381E041
S113070090E002C0880F991F6A95E2F780958223D2
S11307108ABB08952AB381E090E002C0880F991F34
S11307206A95E2F7822B8ABB089541110CC027B366
S113073081E090E002C0880F991F6A95E2F78095E6
S1130740822387BB089527B381E090E002C0880F1D
S1130750991F6A95E2F7822B87BB089541110CC05B
S113076024B381E090E002C0880F991F6A95E2F7F4
S11307708095822384BB089524B381E090E002C075
S1130780880F991F6A95E2F7822B84BB0895411163
S11307900CC021B381E090E002C0880F991F6A95D4
S11307A0E2F78095822381BB089521B381E090E034
S11307B002C0880F991F6A95E2F7822B81BB0895C6
S11307C0813001F130F08230B1F1833009F44CC052
S11307D00895413059F42BB381E090E002C0880FB2
S11307E0991F6A95E2F7822B8BBB08952BB381E0A6
S11307F090E002C0880F991F6A95E2F780958223E2
S11308008BBB0895413059F428B381E090E002C0D5
S1130810880F991F6A95E2F7822B88BB089528B345
S113082081E090E002C0880F991F6A95E2F78095F5
S1130830822388BB0895413059F425B381E090E0C8
S113084002C0880F991F6A95E2F7822B85BB089531
S113085025B381E090E002C0880F991F6A95E2F702
S11308608095822385BB0895413059F422B381E0F9
S113087090E002C0880F991F6A95E2F7822B82BB31
S1130880089522B381E090E002C0880F991F6A9511
S1130890E2F78095822382BB0895813071F028F0BD
S11308A0823099F08330C9F008958BB3962F9095D8
S11308B089234623482B4BBB089588B3962F9095E4
S11308C089234623482B48BB089585B3962F9095DA
S11308D089234623482B45BB089582B3962F9095D0
S11308E089234623482B42BB08955058BB27AA2787
S11308F00E948D040C9465050E94570538F00E94EF
S11309005E0520F039F49F3F19F426F40C94540545
S11309100EF4E095E7FB0C944E05E92F0E94760552
S113092058F3BA17620773078407950720F079F420
S1130930A6F50C9498050EF4E0950B2EBA2FA02D75
S11309400B01B90190010C01CA01A0011124FF2778
S1130950591B99F0593F50F4503E68F11A16F04073
S1130960A22F232F342F4427585FF3CF4695379572
S11309702795A795F0405395C9F77EF41F16BA0B37
S1130980620B730B840BBAF09150A1F0FF0FBB1FE5
S1130990661F771F881FC2F70EC0BA0F621F731F2E
S11309A0841F48F4879577956795B795F7959E3F8B
S11309B008F0B0CF9395880F08F09927EE0F97951C
S11309C0879508950E947E0588F09F5798F0B92F67
S11309D09927B751B0F0E1F0660F771F881F991F70
S11309E01AF0BA95C9F714C0B13091F00E94980575
S11309F0B1E008950C949805672F782F8827B85F85
S1130A0039F0B93FCCF3869577956795B395D9F7C7
S1130A103EF490958095709561957F4F8F4F9F4FD1
S1130A200895E89409C097FB3EF4909580957095DD
S1130A3061957F4F8F4F9F4F9923A9F0F92F96E926
S1130A40BB279395F695879577956795B795F1119B
S1130A50F8CFFAF4BB0F11F460FF1BC06F5F7F4F38
S1130A608F4F9F4F16C0882311F096E911C077234A
S1130A7021F09EE8872F762F05C0662371F096E853
S1130A80862F70E060E02AF09A95660F771F881F22
S1130A90DAF7880F9695879597F9089597F99F67E0
S1130AA080E870E060E008959FEF80EC08950024F2
S1130AB00A941616170618060906089500240A94BF
S1130AC012161306140605060895092E0394000C45
S1130AD011F4882352F0BB0F40F4BF2B11F460FFD4
S1130AE004C06F5F7F4F8F4F9F4F089557FD9058FD
S1130AF0440F551F59F05F3F71F04795880F97FBDE
S1130B00991F61F09F3F79F0879508951216130697
S1130B101406551FF2CF4695F1DF08C016161706C6
S1130B201806991FF1CF86957105610508940895FB
S1130B30E894BB2766277727CB0197F908950E948D
S1130B40B2050C9465050E94570538F00E945E05B5
S1130B5020F0952311F00C944E050C9454051124A7
S1130B600C9499050E94760570F3959FC1F3950F37
S1130B7050E0551F629FF001729FBB27F00DB11D1D
S1130B80639FAA27F00DB11DAA1F649F6627B00DAD
S1130B90A11D661F829F2227B00DA11D621F739F96
S1130BA0B00DA11D621F839FA00D611D221F749FA4
S1130BB03327A00D611D231F849F600D211D822FEB
S1130BC0762F6A2F11249F5750409AF0F1F0882312
S1130BD04AF0EE0FFF1FBB1F661F771F881F91503F
S1130BE05040A9F79E3F510580F00C944E050C949B
S1130BF099055F3FE4F3983ED4F38695779567951E
S1130C00B795F795E7959F5FC1F7FE2B880F911D68
S1130C109695879597F90895A29FB001B39FC00157
S1130C20A39F700D811D1124911DB29F700D811D14
S10D0C301124911D0895F894FFCFDC
S1130C3A466F7277617264005475726E696E6720CA
S1130C4A6C65667400466F7277617264206C6566BF
S1130C5A74005475726E696E6720726967687400ED
S1110C6A466F72776172642072696768740065
S9030000FC
